:020000040800F2
:10000000880400204501000817190008731800082B
:100010001519000855080008B91A0008000000006A
:100020000000000000000000000000001B19000894
:100030005708000800000000191900081D190008E1
:100040005F0100085F0100085F0100085F01000810
:100050005F0100085F0100085F0100085F01000800
:100060005F0100085F0100085F0100085F010008F0
:100070005F0100085F0100085F0100085F010008E0
:100080005F0100085F0100085F0100085F010008D0
:100090005F0100085F0100085F0100085F010008C0
:1000A0005F0100085F0100085F0100085F010008B0
:1000B0005F0100085F0100085F0100085F010008A0
:1000C0005F0100085F0100085F0100085F01000890
:1000D0005F0100085F0100085F0100085F01000880
:1000E0005F0100085F0100085F0100085F01000870
:1000F0005F0100085F0100085F0100085F01000860
:100100005F0100085F0100085F0100085F0100084F
:100110005F0100085F0100085F0100085F0100083F
:100120005F0100085F0100085F0100085F0100082F
:10013000DFF80CD000F0FCFA00480047CD2300089F
:10014000880400200648804706480047FEE7FEE78F
:10015000FEE7FEE7FEE7FEE7FEE7FEE7FEE7FEE777
:100160009B19000831010008202A04DB203A21FAFB
:1001700002F00021704721FA02F3D040C2F12002C0
:100180009140084319467047D2B201E000F8012BB4
:10019000491EFBD270470022F6E710B513460A4607
:1001A00004461946FFF7F0FF204610BD2DE9FE4F2B
:1001B00081EA030404F0004421F0004100944FF070
:1001C000000B23F0004350EA01045ED052EA03041E
:1001D0005BD0C3F30A54C1F30A552C44A4F2F334A0
:1001E0000194A0FB0254C1F3130141F48011C3F345
:1001F000130343F4801301FB024400FB034E840A03
:10020000970A44EA815447EA8357A4FB076802959A
:100210008D0A05FB07854FEA932C04FB0C54270538
:10022000029D4FEA065847EA1637B5EB08056EEB14
:10023000070C870E920E47EA811742EA8312A7FB4A
:100240000201B6EB0B0164EB00042B0D43EA0C3307
:100250005E1844EB1C50DA465146E7FB0201C5F339
:1002600013044FEA0B3343EA14534FEA0432019C60
:1002700043EA0603A4F10C040294009CCDE900B407
:1002800000F0C2F803B0BDE8F08F00200146F9E7A6
:1002900070B521F0004303430CD0C1F30A5500248C
:1002A000D5EB040564EB0403D617AD1AB34102DBAA
:1002B0000020014670BD201841EB025170BD96230D
:1002C0000022114600F063B800F0004230F0004018
:1002D0000AD0C10D01F56071C0F3160042EA015168
:1002E000C20840071143704700200146704730B5EF
:1002F0000B46014600202022012409E021FA02F5E4
:100300009D4205D303FA02F5491B04FA02F528447D
:10031000151EA2F10102F1DC30BD2DE9F05F0546AA
:10032000002092469B4688460646814640241BE0B4
:100330002846414647462246FFF716FF53465A468F
:10034000C01A914110D311461846224600F002FA15
:100350002D1A67EB01084F4622460120002100F0CC
:10036000F9F917EB00094E41201EA4F10104DFDC6E
:10037000484631462A464346BDE8F09F0029A8BFBB
:100380007047401C490008BF20F00100704710B4BE
:10039000B0FA80FC00FA0CF050EA010404BF10BC73
:1003A000704749B1CCF1200421FA04F411FA0CF1A0
:1003B00018BF012121430843A3EB0C01CB1D4FEAD9
:1003C00000614FEA102042BF002010BC704700EBD4
:1003D000C35010440029A4BF10BC7047401C490002
:1003E00008BF20F0010010BC704710B5141E73F157
:1003F000000408DA401C41F1000192185B411A43E5
:1004000001D120F0010010BD2DE9F04D92469B4630
:1004100011B1B1FA81F202E0B0FA80F220329046D6
:1004200000F098F904460F4640EA0A0041EA0B0141
:1004300053465A46084313D0114653EA010019D0D7
:10044000C8F140025046FFF78FFE05460E46504663
:100450005946424600F07EF9084305D0012004E0E9
:1004600020463946BDE8F08D0020054346EAE07697
:100470002C4337430A986305E40AA0EB08000022E6
:10048000FD0A44EA47540A3002D500200146E9E754
:10049000010510196941DDE9084500196941BDE808
:1004A000F04DA2E72DE9FE4F804681EA0300C00F20
:1004B0000C46009021F0004123F00045B8EB02000B
:1004C000A94105D24046214690461C460B460246AD
:1004D00023F00040104347D0270DC7F30A00C3F3B1
:1004E0000A510290401A019040286BDAC3F31300BE
:1004F00040F4801B0098924620B10023D2EB030AFF
:1005000063EB0B0B01985946C0F14002504600F0D6
:1005100021F906460D4650465946019A00F029F940
:1005200010EB08006141002487EA115284EAE77366
:100530001A4340D0009A62B3019A012A4FEA075247
:1005400015DC001B61EB02014FF0004202EA07528A
:10055000CDE90042001C41F5801132462B46FFF7E1
:1005600053FF03B0BDE8F08F40462146F9E7001B7A
:1005700061EB0201001C41F5801300185B4120185B
:10058000A2F5001747EB030140EAD570B6196D419B
:1005900011E06D084FEA360645EAC0754FEA07528A
:1005A000001B61EB0201001C41F5801149084FEA74
:1005B00030000019514132462B4603B0BDE8F04FE0
:1005C000FFF713BF0098012240000023D0EB020286
:1005D00063EBE073009821464FEAE074B8EB00004B
:1005E00061EB0401E9E783F000435BE781F0004140
:1005F00058E72DE9F04D81EA030404F0004B21F0A7
:10060000004514464FF0000A23F0004150EA05026D
:1006100020D054EA01021DD0C5F30A570246C5F3A3
:100620001303C1F31300C1F30A5640F4801543F4D9
:100630008013A7EB0608101BD64608F2FD3873EBB3
:10064000050002D308F1010801E092185B41B8F1FE
:10065000000F03DA00200146BDE8F08D00204FF4C2
:100660008011064684460EE0171B73EB050705D381
:10067000121B63EB050306434CEA010C49084FEAE1
:10068000300092185B4150EA0107EDD152EA0300B5
:1006900012D082EA040083EA0501084305D0101B4A
:1006A000AB4106D20122002306E000224FF00043B6
:1006B00002E06FF0010253101AEB06004CEB0851F8
:1006C00010EB0A0041EB0B01BDE8F04DFFF78DBECA
:1006D000C1F30A52C1F3130140F2FF3341F4801118
:1006E0009A4202DA00200146704740F233439A42B0
:1006F000A2F2334202DC5242FFF736BD00F02AB8C4
:1007000030B5041E71F1000404DB4FF00044404298
:1007100064EB0101141E73F1000405DB1C464FF06D
:100720000043524263EB0403994208BF904230BD3C
:10073000064C074D06E0E06840F0010394E807002E
:1007400098471034AC42F6D3FFF7F6FC5C2400085F
:100750007C240008202A04DB203A00FA02F1002061
:1007600070479140C2F1200320FA03F319439040EF
:100770007047202A06DBCB17203A41FA02F043EA01
:10078000E07306E041FA02F3D040C2F1200291404A
:10079000084319467047000070B504460068816838
:1007A000C943C9071CD1816821F00101816000F0B3
:1007B0009DFB05460FE000BF00F098FB401B0228A0
:1007C00009D9A06A40F01000A062E06A40F0010080
:1007D000E062012070BD20688068C043C007EBD094
:1007E000002070BDF8B500260446009600688168B8
:1007F000C943C90728D0816841F0010181601348CD
:1008000013490068B0FBF1F000E0401E00900028A2
:10081000FBD100F06BFB054611E000BF00F066FB6A
:10082000401B02280BD9A06A40F01000A062E06AC9
:1008300040F00100E06284F824600120F8BD2068E7
:100840008068C043C007E9D10020F8BD0C0000203B
:1008500040420F00FEE7704772B6FEE7F8B500248D
:10086000009490F824202546012A12D0012280F815
:1008700024204A681F23072A0DD20668776B521E70
:1008800002EB820293409F430B6893401F437763C0
:1008900019E00220F8BD06680D2A0AD2376BD21F74
:1008A00002EB820293409F430B6893401F433763E0
:1008B00009E0F76A0D3A02EB820293409F430B680E
:1008C00093401F43F7620A68072306680A2A0AD37F
:1008D000F7680A3A02EB420293409F438B689340C9
:1008E0001F43F76008E0376902EB420293409F43E1
:1008F0008B6893401F4337610A68102A01D0112A80
:1009000020D1124B02689A4217D193681B0219D466
:10091000936843F4000393600968102912D10C49CD
:100920000C4A0968B1FBF2F101EB8101490000E0DA
:10093000491E00910029FBD104E0816A41F02001A9
:100940008162012480F824502046F8BD0024014033
:100950000C00002040420F00806A70470068C06CA5
:10096000704700002DE9F04104004FF0000514D05D
:10097000A06A002628B9E66284F82460204600F0C8
:1009800083F82046FFF708FFA16A01F01001014338
:1009900004D0A06A40F01000A0626BE0A16A21F4CC
:1009A000885141F00201A162334923688B42E16919
:1009B00004D1B1F5402F01D14FF40021277B4FF432
:1009C000807C41EA470261680A43A168614509D019
:1009D000012907D05FF0000194F814E0BEF1010F87
:1009E00002D00AE06146F7E7C7B1A76A47F02007DF
:1009F000A762E76A47F00107E7625F6827F4694783
:100A00000F435F60236899681C4F39401143996018
:100A1000A16861450BD0012909D00CE0DFF860E046
:100A2000A7690EEB47370F4347F40061E5E7218ADA
:100A30000D05A5F580152168CB6A23F470032B43BF
:100A4000CB62216889680F4B1940914208D1E66258
:100A5000A16A21F0020141F00101A162BDE8F0812B
:100A6000A06A20F0020040F01000A062E06A40F0AE
:100A70000100E0620120F1E7003C0140FDF7E1FFE9
:100A800000E0FFFFFE0E1FFF00B585B000210091C2
:100A900001910291039100680E49884218D10E48D5
:100AA000816941F400718161816901F400710491EF
:100AB000816941F0040181618069694600F00400A8
:100AC00004900120009003200190044800F012F9E6
:100AD00005B000BD002401400010024000080140A4
:100AE0002DE9F84300260D460446009600F0FEF975
:100AF000804620688168C90508D5A06A40F02000BA
:100B0000A06284F824600120BDE8F8834168C9052B
:100B100003D4C06A10F4700F26D0022000F076FAD9
:100B200038490968B1FBF0F72068036936490B4280
:100B30004FEA61014FEAA1121BD1C3684FEA611C61
:100B400013EA0C0F15D103690B4221D1C068104282
:100B50001ED114201FE0681C06D045B300F0C6F972
:100B6000A0EB0800A84222D8206800688007F2D5D0
:100B70002AE003690B4202D1C168114206D0026922
:100B800022490A4206D1C068084203D1542002E03B
:100B9000292000E0FC204743009813E0681C0ED099
:100BA0002DB100F0A3F9A0EB0800A84207D9A06A74
:100BB00040F00400A06284F824600320A4E70098B9
:100BC000401C0090B842E9D321686FF01200086021
:100BD000A06A40F40070A06220688068C0F34240C0
:100BE00007280CD1207B50B9A06A20F48070A06245
:100BF000A06AC00403D4A06A40F00100A0620020F3
:100C000082E700000C00002024499224499224002D
:100C100070B5044690F8240001280DD0012084F816
:100C200024002046FFF7DEFD02004FF0000005D053
:100C300084F82400104670BD022070BDA16A40F205
:100C40000123994341F48071A1621F4D23681F491C
:100C5000AB4218D10E6816F4702F14D0A66A46F471
:100C60008016A6620E68760505D5A66A26F400569B
:100C700046F48056A662A66AF6040AD5E66A26F00D
:100C80000606E66206E0A66A26F48016A6625E689C
:100C9000E9E7E06284F824006FF002001860206841
:100CA0008368C3F34243072B05D1A84208D10968E2
:100CB00011F4702F04D0816841F480118160B9E78C
:100CC000816841F4A001F9E70028014004240140B3
:100CD00070B5044600F00AF90546601C02D00448CD
:100CE0000078044400F002F9401BA042FAD370BD22
:100CF000000000202DE9F84FDFF8C891002409F129
:100D0000040A0AF1040B23460F270BF1040ED1E06D
:100D10000125A54006EA0502AA4276D1DFF8A8C15E
:100D20004E68A6EB0C0866452BD00DDC032E34D0A4
:100D300005DC36B3012E19D0022E2FD11BE0112E67
:100D400016D0122E2AD119E0B8F5881F19D006DC6A
:100D5000B8F5803F15D0B8F5801F1FD111E0B8F568
:100D6000001F0ED0B8F5041F18D10AE0CB6815E0BB
:100D7000CB681B1D12E0CB6808330FE0CB680C3347
:100D80000CE08B682BB1012B4FF0080303D04561B9
:100D900004E0042302E0056100E00023FF2A01D8FB
:100DA000064601E000F104064FEA840501D9A5F1E9
:100DB0002005D6F8008007FA05FC28EA0C0803FA9B
:100DC00005F548EA0508C6F800804D68ED0070D5C5
:100DD0003E4DAE6946F00106AE61AD6924F00306F2
:100DE00005F0010500953A4D06EB050CDCF80850BE
:100DF000A607360F07FA06F825EA0805DFF8D480BB
:100E0000404503D14FF0000825E052E0DFF8C880EC
:100E1000404502D14FF001081DE0DFF8C080404599
:100E200002D14FF0020816E0DFF8B480404502D14D
:100E30004FF003080FE0DFF8AC80404502D14FF0DF
:100E4000040808E0DFF8A080404502D14FF0050813
:100E500001E04FF0060808FA06F848EA0508CCF861
:100E600008804D68D9F80060ED034D4601D5164362
:100E700000E096432E604D68DAF80060AD035546F9
:100E800001D5164300E096432E604D68DBF8006004
:100E9000ED025D4601D5164300E096432E604D6895
:100EA000DEF80060AD02754601D5164300E09643BA
:100EB0002E60641C0A681646E2407FF429AFBDE844
:100EC000F88F0000000401400000111000100240E3
:100ED0000000014000080140000C014000100140EA
:100EE0000014014000180140001C014001488068C6
:100EF0007047000000000020024881680278114419
:100F00008160704700000020074810B5016841F07B
:100F100010010160032000F067F8002000F006F8DF
:100F200000F024F8002010BD0020024070B50D4DE7
:100F300004464FF47A712878B1FBF0F00A49096849
:100F4000B1FBF0F000F0BEFB48B9102C07D2002234
:100F50002146501E00F028F800206C6070BD012072
:100F600070BD0000000000200C0000200C4808B5F7
:100F7000816941F001018161816901F00101009104
:100F8000C16941F08051C161C06900F0805000909A
:100F90000448416821F0E06141F08061416008BD92
:100FA0000010024000000140F0B40E4B1B680C46DC
:100FB000C3F30223C3F10705042D00D90425191D2D
:100FC000072901D2002300E0DB1E012606FA05F105
:100FD000491E214099409E40761E16403143F0BC88
:100FE00000F07CBD0CED00E0064900F00702086847
:100FF0004FF6FF03184040EA0220034A10430860FE
:10100000704700000CED00E00000FA0510B52CA4BC
:1010100001461DCC86B08DE81D002DA02D4C00682A
:101020000490002004292FD00BDC01292FD00229A5
:1010300028D100F071F96168C1F38131491C490080
:101040001EE0082920D010291CD161682268D20135
:1010500018D5C1F38342C9031DF8020009D56168A0
:1010600004AAC1F34041515C1B4AB2FBF1F1484371
:1010700001E01A4948436168490203D44000032152
:10108000B0FBF1F006B010BD00F056F9FAE7226AA5
:10109000C2F30121012903D1920701D5C803F1E769
:1010A000022905D1626A920702D549F64040E9E774
:1010B0000329E7D121688903E4D54FF22440E1E711
:1010C00002030405060708090A0B0C0D0E0F101089
:1010D000010200000010024000127A0000093D00E9
:1010E0002DE9F84305460078354CC00754D0E06937
:1010F0000026C00008D4E06940F08050E061E0695B
:10110000012600F0805000902E480168C90512D4D5
:101110000168804641F480710160FFF7E7FE0746F1
:1011200005E000BFFFF7E2FEC01B642823D8D8F813
:101130000000C005F6D5206A10F4407021D0A988BF
:1011400001F4407181421CD0206A1F49012220F421
:1011500040700A6000220A602062C00711D0FFF7C9
:10116000C5FE074641F2883808E000BFFFF7BEFE23
:10117000C11B414502D90320BDE8F883206A8007DE
:10118000F4D5206A696820F44070084320621EB1DB
:10119000E06920F08050E0612878800705D560681C
:1011A000A96820F44040084360602878C00605D54F
:1011B0006068696920F48000084360600020DBE714
:1011C0000010024000700040400442422DE9F04708
:1011D0000F46050061D0434E306800F00700B8426A
:1011E00009D2306820F0070038433060306800F0E2
:1011F0000700B84251D128683B4C810712D54007FF
:1012000003D5606840F4E06060602878000703D58B
:10121000606840F4605060606068A96820F0F00089
:10122000084360602878C00728D06868012810D07B
:101230002168022810D0890700292EDA616821F080
:10124000030101436160FFF751FE804641F2883996
:101250000DE021688903EFE78901EDE7FFF746FE1E
:10126000A0EB0801494502D90320BDE8F08760687A
:10127000696800F00C00B0EB810FEFD1306800F02E
:101280000700B8420BD9306820F0070038433060BF
:10129000306800F00700B84201D00120E5E7287867
:1012A000400705D56068E96820F4E06008436060A5
:1012B0002878000706D56068296920F4605040EA64
:1012C000C100606000F038F86168084AC1F303119A
:1012D000515CC8400649086006480068FFF726FED2
:1012E0000020C2E700200240001002404424000811
:1012F0000C000020040000200448054900684968EB
:10130000044AC1F30221515CC84070470C00002020
:101310000010024054240008044805490068496848
:10132000044AC1F3C221515CC84070470C00002040
:10133000001002405424000812A185B00FC98DE8A6
:101340000F0014A0144A006804905168134801F07B
:101350000C03042B10D0082B0ED1C1F38343C90317
:101360001DF803000AD5516804AAC1F34041515C3D
:101370000A4A5043B0FBF1F005B0704708494843B2
:10138000FAE7000002030405060708090A0B0C0D22
:101390000E0F1010010200000010024000127A002F
:1013A00000093D002DE9F84F040070D02078C04DB1
:1013B000C00749D06868C0F38100012807D0686879
:1013C000C0F38100022809D16868C00306D52868E7
:1013D000800339D560680028E7D035E06068B0F553
:1013E000803F0BD010B1B0F5A02F11D0286820F4A9
:1013F00080302860286820F4802002E0286840F4CB
:1014000080302860606890B1FFF770FD06460AE002
:10141000286840F480202860F0E700BFFFF766FDF1
:10142000801B642873D828688003F7D50CE0FFF789
:101430005DFD064605E000BFFFF758FD801B6428F0
:10144000F0D828688003F7D420789A4E80074FF0B0
:1014500001094FF0000839D5686810F00C0F07D06B
:101460006868C0F38100022809D16868C00306D407
:101470002868800714D52069012808D110E0206968
:10148000B0B1C6F80090FFF731FD074605E00AE16C
:10149000FFF72CFDC01B0228C4D828688007F7D5A9
:1014A0002868616920F0F80040EAC10028600DE07A
:1014B000C6F80080FFF71AFD074604E0FFF716FDA7
:1014C000C01B022823D828688007F7D4207800079B
:1014D0002CD57948A169D9B1C0F80090FFF706FD75
:1014E000074604E0FFF702FDC01B02280FD8686A18
:1014F0008007F7D571484FF4FA510068B0FBF1F05E
:10150000009000BF0098411E0091FAD20EE080E0EA
:10151000C0F80080FFF7EAFC074604E0FFF7E6FCAE
:10152000C01B022875D8686A8007F7D42078400766
:1015300060D5E8690027C00008D4E86940F0805011
:10154000E861E869012700F0805000905C4801687C
:10155000C90513D40168834641F480710160FFF727
:10156000C5FC824606E000BFFFF7C0FCA0EB0A0006
:1015700064284ED8DBF80000C005F5D5E0680128E6
:101580000AD008B1052813D0286A20F0010028628B
:10159000286A20F0040002E0286A40F00100286276
:1015A000E06841F2883B98B1FFF7A0FC82460BE06F
:1015B000286A40F004002862EEE700BFFFF796FCBF
:1015C000A0EB0A0159455AD8286A8007F6D50CE0E5
:1015D000FFF78CFC824605E0FFF788FCA0EB0A01D0
:1015E00059454CD8286A8007F6D41FB1E86920F025
:1015F0008050E861E06988B36968C1F3810102291C
:1016000044D00228C6F8608004D0FFF76FFC04467F
:1016100038E034E0FFF76AFC074604E0FFF766FCB9
:10162000C01B02282BD828688001F7D4206AB0F5A7
:10163000803F05D16868A16820F4003008436860E5
:10164000D4E908010843696821F47411084368600B
:10165000C6F86090FFF74AFC044606E025E000BFAC
:10166000FFF744FC001B022809D828688001F7D541
:101670001BE000BFFFF73AFC001B022802D9032041
:10168000BDE8F88F28688001F4D40EE00128F7D077
:101690006868226A00F48031914204D1616A00F4E2
:1016A0007010884201D00120EAE70020E8E700003E
:1016B0000010024000004242800442420C00002020
:1016C0000070004010B5401EB0F1807F01D30120B2
:1016D00010BD4FF0E02460610F21601700F0FEF9AB
:1016E0000020A06107202061002010BD70B504001B
:1016F00004D094F83900002510B106E0012070BD37
:1017000084F83850204600F023F8242084F839006B
:101710002068C16821F40051C160204600F03EF904
:101720002068016921F4904101612068416921F03C
:101730002A0141612068C16841F40051C160E5633C
:10174000202084F8390084F83A00002070BD0000A1
:1017500030B585B00024009401940294039400688D
:101760001449884224D11448816941F4804181613F
:10177000816901F480410491816941F00401816132
:1017800080690E4D00F0040004904FF4007000904A
:10179000022001900320039069462846FFF7AAFA29
:1017A0002815CDE90004694628460294FFF7A2FAFD
:1017B00005B030BD00380140001002400008014073
:1017C0002DE9F843044690F839001F4616460D46A9
:1017D00020284CD1C5B1BEB194F83800012846D0BC
:1017E000012084F838004FF00008C4F83C80212024
:1017F00084F83900FFF77AFBA6848146E684A06866
:10180000B0F5805F03D004E00120BDE8F8832069D3
:1018100028B12E465FF0000584F838800EE00026DF
:10182000FAE78021204600F015F9A0B9AEB116F80C
:10183000010B21684860E08C401EE084E08C4B4640
:101840004FF0000200970028EBD14FF040012046F6
:1018500000F000F930B10320D7E735F8020BC0F3F0
:101860000800E6E7202084F839000020CDE70220B8
:10187000CBE7FEE73EB500241048009401940294A3
:101880000D498460016001250573047505614FF4FD
:1018900060214460C161FFF765F808B1FEF7DCFF25
:1018A000CDE90045694605480294FEF7D7FF0028B8
:1018B00001D0FEF7D1FF3EBD0024014014000020FE
:1018C000054808B5816941F004018161806900F033
:1018D0000400009008BD0000001002400C4810B544
:1018E0000A4901604FF4E1314160002181600C221E
:1018F000C160C0E904128161C161FFF7F7FE0028F1
:1019000003D0BDE81040FEF7A7BF10BD003801406E
:1019100044000020FEE7FEE770477047FFF7ECBA8F
:1019200030B595B028216846FEF735FC14210AA889
:10193000FEF731FC18210FA8FEF72DFC0121080449
:10194000CDE900100025029502240491CDE907405D
:101950004FF4E01009906846FFF724FD08B172B615
:10196000FEE70AA90F2081E831004FF48060CDE93D
:101970000D0502210AA8FFF729FC08B172B6FEE79F
:101980004FF4004011900F940FA8FFF7A9FB002817
:1019900001D072B6FEE715B030BD704770B5044691
:1019A00000680169E26821F4405111430161216935
:1019B000A0680843616908432168CA6841F20C6362
:1019C0009A430243CA6020684169A26921F44071C8
:1019D000114341611E492068884202D1FFF79CFCF7
:1019E00001E0FFF789FC00EBC00101EB0012606829
:1019F00064218000B2FBF0F3B3FBF1F36FF0180643
:101A00007343B2FBF0F5B2FBF0F605EB830532232E
:101A100003EB0515B5FBF1F5B6FBF1F605F0F005A6
:101A200005EB0615B2FBF0F6B2FBF0F0B0FBF1F0FF
:101A30006FF01802504306EB800003EB0010B0FB80
:101A4000F1F0216800F00F002844886070BD0000AC
:101A5000003801402DE9F041984617460E460446ED
:101A6000069D1DE0681C1BD02DB1FFF73FFAA0EBCF
:101A70000800A84214D92068C16821F4D071C1605F
:101A80002068416921F001014161202084F839007A
:101A900084F83A00002084F838000320BDE8F08183
:101AA0002068006836EA000004D00020B842D9D08F
:101AB0000020F3E70120F9E7FEE700000FB4054B33
:101AC00010B503A9044A029800F0DAF810BC5DF8DA
:101AD00014FB0000B1230008100000200907090EC4
:101AE000002804DB00F1E02080F80014704700F0CB
:101AF0000F0000F1E02080F8141D704702E008C8D4
:101B0000121F08C1002AFAD170477047002001E077
:101B100001C1121F002AFBD1704700002DE9FF5FB1
:101B2000DDE90220010DDDF838B0024318D044F69B
:101B30001050A1F2FF3141430D140F98012820D01D
:101B4000A5EB0B00401C5FEA000A4FF00004474E73
:101B5000DFF81C91A046504616D5CAF1000728E0D0
:101B60000F98012443A2012808D0002100980F9B60
:101B7000C0E90021C0E90243BDE8FF9F6FEA0B0105
:101B8000F4E7CBF10000DEE7074612E0F80707D0E4
:101B90002246334640464946FEF708FB80468946C2
:101BA0002246334610461946FEF700FB04460E4611
:101BB0007F10002FEAD1DDE90201BAF1000F4246A1
:101BC0004B4602DAFEF7F2FA01E0FEF712FD044698
:101BD0000E460022284BFEF793FD03D84FF0FF304E
:101BE000014607E00022254B20463146FEF75AFC0D
:101BF000FEF76EFD102409E0002C0ADB0A22002308
:101C0000FEF78BFB019B30321A55641E50EA01022D
:101C1000F2D1641C019AC4F1110314440F9A012AF1
:101C200003D0012208430DD10AE0084304D000206C
:101C30004FF0110B0F9080E7A3EB0B056D1E0DE02D
:101C40005B4504DD4FF0000205F1010504E003DA15
:101C50004FF00002A5F10105002AECD000980F9981
:101C6000C0E90231C0E9004586E7000000002440D9
:101C70000000F03F300000000000F0430000E03FB3
:101C80002DE9FF4F95B09B468946064600250FE299
:101C9000252877D100242746F84A0121059400E041
:101CA000044316F8013F203B01FA03F01042F7D13C
:101CB00030782A2811D06FF02F033078A0F130024D
:101CC000092A16D8059A44F0020402EB820203EBBB
:101CD00042021044761C0590EFE759F8042B059258
:101CE000002A03DA504244F40054059044F0020400
:101CF000761C30782E2816D116F8010F44F0040413
:101D00002A280DD06FF02F023078A0F13003092B74
:101D100009D807EB870302EB4303C718761CF3E7E8
:101D200059F8047B761C30786C280FD006DC4C28E0
:101D300017D068280DD06A2814D104E0742810D078
:101D40007A280FD10DE044F400140AE044F4801422
:101D500001E044F440147278824202D104F5801408
:101D6000761C761C307866280BD013DC582877D088
:101D700009DC002875D04528F6D04628F4D047283D
:101D80001AD19DE118E0632835D0642879D0652800
:101D900012D195E1702873D008DC6728F1D069284A
:101DA0006FD06E280DD06F2806D1B5E073282CD0E7
:101DB000752875D0782874D05A46179990476D1CAD
:101DC00075E1C4F30250022809D003280DD0D9F8D8
:101DD000001004280DD00D6009F1040967E1D9F85D
:101DE0000010EA17C1E90052F6E7D9F800100D809B
:101DF000F2E70D70F0E719F8041B8DF800100020D1
:101E00008DF80100EA46012003E059F804AB4FF0D9
:101E1000FF3061074FF0000102D40DE008F101012D
:101E20008846B9420FDA8045F8DB1AF80810002915
:101E3000F4D108E008F1010188468142FADB1AF882
:101E400008100029F6D105985B46A0EB080721464B
:101E50003846179A00F094FA284400EB080507E08A
:101E60004DE029E10DE01AF8010B5A461799904709
:101E7000B8F10108F7D25B4621463846179A13E1BC
:101E800042E00A220092C4F302524FF0000A022AF2
:101E900008D059F804CB032A4FEAEC710AD00DE0C0
:101EA00029E02AE009F1070121F00702F2E802C166
:101EB000914609E00FFA8CFC4FEAEC71042A03D139
:101EC0004FFA8CFC4FEAEC71002907DA0A46002130
:101ED000DCF1000C61EB02012D2202E0220504D5A9
:101EE0002B228DF80420012203E0E20701D02022FA
:101EF000F7E7904659E00A2102E010220DE0102198
:101F00004FF0000A00910BE010224FF0000A44F05D
:101F100004040827009203E008224FF0000A009210
:101F2000C4F30252022A05D059F804CB0021032A37
:101F300008D009E009F1070121F00702F2E802C127
:101F4000914605E01FFA8CFC042A01D10CF0FF0C2D
:101F50004FF00008220728D5702806D0009B83F098
:101F6000100353EA0A0305D00EE040228DF8042046
:101F7000012208E05CEA010206D030228DF804203C
:101F80008DF8050002229046009B83F0080353EA77
:101F90000A030AD15CEA010201D1620705D53022A9
:101FA0008DF804204FF001087F1E582804D034A07B
:101FB00003900EA802900DE036A0F9E75346604664
:101FC000009AFEF7AAF984460398825C0298401EA4
:101FD000029002705CEA0100F0D1029806A9081A8A
:101FE00000F1200A600702D524F4803400E00127C4
:101FF000574502DDA7EB0A0000E0002000EB0A01D4
:10200000009005984144401A0590E00306D45B46D1
:102010002146179A059800F0B3F90544002706E019
:1020200001A85A46C05D179990476D1C7F1C474513
:10203000F6DBE0030CD55B462146179A059800F0C5
:102040009FF9054404E030205A46179990476D1CCB
:102050000099481E00900029F5DC08E002980299DA
:102060005A460078491C0291179990476D1CBAF1A5
:102070000001AAF1010AF1DC65E100000928010074
:1020800030313233343536373839616263646566EE
:1020900000000000303132333435363738394142B0
:1020A000434445460000000000F058F90544761C02
:1020B000307800287FF4ECAD19B02846BDE8F08FE9
:1020C000620700D4062709F1070222F0070CFCE89A
:1020D0000223E14603F000485FEA080C02D00FF249
:1020E000702C0DE05FEA045C02D50FF2682C07E06B
:1020F0005FEAC47C02D00FF2602C01E0AFF2700CFA
:102100004FF0FF3823F00043CDF850C065280CD0C5
:1021100006DC452809D046281DD047283DD13DE0A2
:10212000662818D067287ED138E00021112F01DB06
:10213000112000E0781CCDE9000106A90EA8FFF7E8
:10214000EDFCDDE90F010E9A03910021009207F1E9
:10215000010A04914DE04FF000400097CDE90110D5
:1021600006A90EA8FFF7DAFCDDE90F0203920E9B29
:1021700011990022DDF80CA00093049211B9791C8A
:1021800000EB010AB7EB0A0004D4C0F1FF3007F1FD
:10219000010A0490AAEB0700019044E0012F00DA45
:1021A00001270021112F01DD112000E03846CDE983
:1021B000000106A90EA8FFF7B1FCDDE90F010E9A98
:1021C0000391002104910092BA4621070CD403998F
:1021D000514500DA8A46BAF1010F05DD009AAAF1ED
:1021E0000101515C302908D0B84202DA10F1040F25
:1021F00006DA0121CDE9011015E0AAF10101E9E7B4
:10220000002805DC049901440491AAEB000102E0D6
:10221000411C514500DD8A460499401A401C01903A
:102220004FF000400290200704D40198504501DB94
:10223000CDF8048000208DF84F0002980DF14F0773
:10224000B0F1004F25D02B200E9002984FF00208DD
:1022500000280CDA404202902D200E9007E00A215F
:102260000298FEF744F83031029007F8011DB8F1EA
:102270000001A8F10108F2DC02980028EFD1791ED4
:102280000E980870307800F0200040F0450007F804
:10229000020D12A8C01B00F107081498007800B1C5
:1022A000012000EB0A01019801EBE071059841441F
:1022B000401A401E0590E00306D45B462146179A5B
:1022C000059800F05DF805441498007818B15A4656
:1022D000179990476D1CE00324D55B462146179A59
:1022E000059800F04DF805441CE00498002807DB31
:1022F000DDE90301884203DD0098405C179901E0A5
:10230000179930205A469047049805F10105401C62
:1023100004900198401E019004D12E205A4617992E
:1023200090476D1CBAF10001AAF1010ADDDC05E05D
:1023300017F8010B5A46179990476D1CB8F1000128
:10234000A8F10108F4DC5B462146179A0598ABE634
:102350002D0000002B000000200000002DE9F041BE
:10236000044600251E461746880404D405E0394675
:102370002020B0476D1C641EF9D52846BDE8F081C9
:102380002DE9F041044600251E469046C80301D5BC
:10239000302700E02027880404D505E04146384670
:1023A000B0476D1C641EF9D52846BDE8F0810000D9
:1023B00038B504468DF80000022301226946024820
:1023C000FFF7FEF9204638BD44000020FEF79CFDD3
:1023D000FFF7A6FAFFF774FAFFF74CFAFFF77EFA59
:1023E0001148FEF715FC32210F48FEF779FB0E4825
:1023F000FEF7B2FA800513D50B48FEF7AFFAFDF7EA
:102400005EFFFDF761FF0022084BFDF7CFFE6FF086
:102410000B02FDF73DFF02460B4605A0FFF74EFB02
:102420003220FEF755FCDEE71400002000C8A9406A
:102430005B092041445D203A20252E3166206D56EF
:102440000D0A00000000000000000000010203046B
:102450000607080900000000010203047C240008AC
:102460000000002014000000FC1A0008902400085E
:1024700014000020740400000C1B00080100000080
:1024800010000000000000000024F4000000000024
:0400000508000131BD
:00000001FF
